8=FIX.4.2|9=70|35=A|34=1|49=SIMULATOR|52=20220602-06:37:00.000|56=CLIENT|98=0|108=30|10=104|8=FIX.4.2|9=224|35=8|34=2|49=SIMULATOR|52=20220602-06:37:23.000|56=CLIENT|6=0.0|11=1654151843810|14=0|17=1|20=0|31=0.0|32=0|37=1|38=1000|39=0|40=1|54=1|55=6758|59=0|60=20220602-06:37:23.840|76=111111|109=InternalConnectionID|150=0|151=1000|10=080|8=FIX.4.2|9=303|35=8|34=3|49=SIMULATOR|52=20220602-06:37:23.000|56=CLIENT|6=3680.5|11=1654151843810|14=100|17=2|20=0|31=3680.500000|32=100|37=1|38=1000|39=1|40=1|54=1|55=6758|59=0|60=20220602-06:37:23.840|109=InternalConnectionID|150=1|151=900|375=123456|851=1|6226=Y|8031=3680.500000|8032=3680.500000|8033=3680.500000|10=106|8=FIX.4.2|9=58|35=0|34=4|49=SIMULATOR|52=20220602-06:37:53.000|56=CLIENT|10=079|